:020000041000EA
:1000000000B5324B212058609868022188439860DF
:10001000D860186158612E4B002199600221596106
:100020000121F02299502B49196001219960352056
:1000300000F044F80222904214D00621196600F024
:1000400034F8196E01211966002018661A6600F04E
:100050002CF8196E196E196E052000F02FF8012189
:100060000842F9D1002199601B49196000215960AB
:100070001A491B48016001219960EB211966A021F2
:10008000196600F012F800219960164914480160C1
:100090000121996001BC002800D000471248134993
:1000A000086003C880F30888084703B5996A0420EC
:1000B0000142FBD001200142F8D103BD02B5186610
:1000C0001866FFF7F2FF186E186E02BD00000240BE
:1000D000000000180000070000035F00212200005C
:1000E000F4000018222000A00001001008ED00E03C
:1000F00000000000000000000000000074B24E7A12
:1001000000200420F7010010C3010010C5010010F9
:10011000C1010010C1010010C1010010C101001097
:10012000C1010010C1010010C1010010C701001081
:10013000C1010010C1010010C9010010CB01001065
:10014000CD010010CD010010CD010010CD01001037
:10015000CD010010CD010010CD010010CD01001027
:10016000CD010010CD010010CD010010CD01001017
:10017000CD010010CD010010CD010010CD01001007
:10018000CD010010CD010010CD010010CD010010F7
:10019000CD010010CD010010CD010010CD010010E7
:1001A000CD010010CD010010CD010010CD010010D7
:1001B000CD010010CD010010CD010010CD010010C7
:1001C00000BE00BE00BE00BE00BE00BEEFF3058054
:1001D000103800BEF2EB8871388100106081001089
:1001E0003402001090A31AE700201F49086006C8D7
:1001F00081F3088810471D48006800282FD10DA4FE
:100200000ECC002902D000F012F8F9E71849194A7B
:10021000002000E001C19142FCD1174988471749ED
:1002200088471749884700BEFDE701C901C29A42C5
:10023000FBD3704760810010C00000208C030020B9
:100240002C84001000000420000004202C840010E6
:10025000001004200010042000000000704709482E
:1002600003F076F90047000008ED00E0000000D040
:10027000900300206C150020451E0010450400105E
:10028000391F00105756000006005250ABB36053A0
:10029000BC7F001006005250861C0302CC7F001069
:1002A000060052505422A29DD87F001005005250E3
:1002B000DE65F4682C840010F8B5C0460448054B90
:1002C00010B5834203D0044B002B00D0984710BDDB
:1002D0008C0300208C030020000000000648074922
:1002E000091A8B10C90FC91810B5491003D0044B57
:1002F000002B00D0984710BD8C0300208C030020F9
:100300000000000010B5074C2378002B09D1FFF73F
:10031000D5FF054B002B02D0044800E000BF0123AD
:10032000237010BD9006002000000000307B0010FC
:10033000054B10B5002B03D00449054800E000BF71
:10034000FFF7CCFF10BDC04600000000940600205F
:10035000307B001070B504000D000A0001000F484A
:1003600004F0E4F92900200006F0D0FF012809D0AC
:10037000022806D10A4804F037F92900200006F0C7
:10038000D5FF70BD074804F02FF9074B29001C70FA
:10039000064B20001D7006F0C9FFF2E7307B00100D
:1003A000887B0010647B0010671500206815002012
:1003B00010B50A000100024804F0B8F910BDC046AB
:1003C000A87B001070B504000D00160006F09EFF1B
:1003D000012810D002280DD12900200006F0A6FF28
:1003E000B37872783178134804F0A0F9290020001E
:1003F00006F09CFF70BD2900200006F097FFB3783F
:100400001A1F602AF2D822213278114206D00A4AF5
:10041000D05C0028EAD004F09BF8E7E711211142F4
:1004200004D01A2B02D8054AD05CF2E7044AD05C0B
:10043000EFE7C046E07B0010907C0010707C00105D
:10044000087C001010B507F0F9FAE12109484902CB
:1004500001F05AFA02211C2000F010F8064804F0BE
:10046000C3F807F06DF901200021404206F008F9B9
:10047000F9E7C04600400340F87B0010094A8300BA
:1004800094464022634410B51C68C0006240C024FA
:1004900014408022520113431C60034B9C4660446D
:1004A000416010BD04C00140004001400123D02242
:1004B0008340120693629361094A83009446402266
:1004C00063441968C0004A40C02111408022520193
:1004D00013431960034B9C460523604443607047F7
:1004E00004C0014000400140024B18688007C00F63
:1004F0007047C04600C0064070B5EFF3108C72B66E
:100500000D4D2B68002BFCD0BFF35F8F0724CB0869
:10051000C618C05C01230C40A3401C0004400342E9
:1005200007D103433370BFF35F8F2C608CF31088C7
:1005300070BD100001F004FD2C0100D0F8B5474655
:10054000CE46884680B5EFF3108C72B6214D2C68EC
:10055000002CFCD0BFF35F8F9A422CD8D408072719
:10056000055D061901241740BC402C421FD007210D
:100570000127894609E0D408055D06194C46390073
:100580001440A1400C00294211D001329342F2D212
:1005900001204042BFF35F8F00220E4B1A608CF3A4
:1005A000108800280FDBC0BCB946B046F8BD2C430C
:1005B00010003470EEE7BFF35F8F00232B608CF3E5
:1005C0001088012040424346002BECD0089801F0EF
:1005D000B7FCC0462C0100D00021044B044ABFF3F5
:1005E0005F8F02C39342FAD17047C046000100D02A
:1005F000800100D0044A1078431CDBB2172B00D9CD
:10060000102313707047C0469002002000B5054BC0
:1006100083B00100009318221F230348FFF78EFFC9
:1006200003B000BDF87C0010AC1200200123834011
:10063000002904D0034A1360034A13607047034A39
:100640001360FBE780E200E000E100E080E100E011
:10065000024B10309B688000C058704700ED00E0EE
:1006600070B50D00EFF3108672B60F4A1368002BB9
:10067000FCD0BFF35F8F0D4B10309B6884001B597B
:100680000B4A934203D09D4201D001F071FC074B0D
:100690009B681D51BFF35F8FBFF35F8F0022024B3A
:1006A0001A6086F3108870BD240100D000ED00E0D0
:1006B000CD010010F0B557464E46DE464546E0B542
:1006C00085B0060002911700EFF3108B72B6674AEF
:1006D0001368002BFCD0BFF35F8F0025644B5D5780
:1006E0009A46002D00DAA4E06B00624C03935B197C
:1006F0009B009846A146C1444B4652469B79103612
:1007000013705D4BB2009B68019299580B1B2F2B05
:1007100034D95A4B994200D0A4E0039B584A9C46D6
:10072000584B6544AD006353434602336519E418E2
:10073000554B0121043B1B1B1B055B0D13436B80B9
:10074000524BEF71AB80FF23AB71029BAB604B460A
:100750000B431900484B019A9B689950BFF35F8F78
:10076000BFF35F8F0022414B1A608BF3108805B0F6
:10077000F0BCBB46B246A946A046F0BD01200A0027
:100780008243D379BB422FD845464E461300404999
:100790001B1B5B415943090D3A4B63533A4B0235DE
:1007A0006519043B5B1B1B05354D5B0D2B437380AB
:1007B0000426B446E0444444131F1B1B4C46A1715D
:1007C00002991B05A16049465B0D2B43A380314B69
:1007D000E77101431360BDE75800C018800020187E
:1007E000C679BE422BD902000623D356002BF3DA7A
:1007F000101D82462848804604267642B446E144CD
:1008000050464E46361A3005400D824656461C4824
:10081000957106439680039A944665441D4AAD003F
:10082000641922604246A371029BA280E771A36013
:1008300090E701F09DFB002553465D5754E7101DDE
:10084000824690884005001584464046D44466465A
:1008500004302018301AE0260005400D36023043DF
:100860008046C9E701F084FB57E7C046240100D069
:10087000661500209402002000ED00E0CD0100107C
:1008800000E0FFFF00A1FFFFC402002001BDFFFF49
:10089000AAAA00000148804701BD0000F0B5DE466D
:1008A00057464E464546E0B50C0083B0EFF310893D
:1008B00072B6584A1368002BFCD0BFF35F8F564BBB
:1008C0009A68030010339F00D559544A90469542C8
:1008D00032D0A54243D0524EAA1B2F2A2CD8012237
:1008E0008240924651464F4A12681140019151464A
:1008F0004D4A1160BFF35F8FEFF305829346002AE4
:1009000033D101232A009A4393689C4208D177E0AF
:100910004B005B189B00F3189968A1422AD01A007B
:10092000062151560029F3DA019B002B19D05246BB
:100930003E4B1A603B4B1A60374B9B68DD51BFF34F
:100940005F8FBFF35F8F0022324B1A6089F31088EC
:1009500003B0F0BCBB46B246A946A046F0BD1500A8
:10096000EAE75246304B1A60E6E79342C9D001F0FD
:10097000FFFAC6E706215956002921DB4A00501824
:10098000800034188046A0689860E079D87106200D
:1009900020569871002824DBA488F01A64052415D9
:1009A00044440019E0240005400D240220439880AF
:1009B00052181F4B9200B6181A781970B271B3E72B
:1009C000594600290FD1FF3191711A499180184978
:1009D0000A789A71184A9B1B5B415A43120D0A70A0
:1009E000A2E71648E3E7164A1649D21A083A500217
:1009F000400D01439980144952080A43DA8093E775
:100A00000621515613000029B8DA5A46002AEAD1C5
:100A10004546DCE7240100D000ED00E0CD010010E8
:100A20009402002000E100E080E100E080E200E0CC
:100A30006615002001BDFFFFAAAA000001BD00004D
:100A4000CE02002000F0FFFF00F8FFFF70B5EFF3CB
:100A5000058101240443EFF3108C72B6214A136818
:100A6000002BFCD0BFF35F8F1F4B05001F4AED1A10
:100A70006D416A43120D1E4D8900AE6852B2765820
:100A8000A6421CD00621595691421CD0122159561B
:100A9000914222D01E215956914220D02A215956E6
:100AA0000324914210D0134B19781A708171BFF34F
:100AB0005F8F00220B4B1A608CF3108870BDAB68FF
:100AC0000D4C5C50EFE700246100091989005B18A8
:100AD000FF21997109499980E5E70124F4E702248F
:100AE000F2E7C046240100D094020020AAAA000028
:100AF00000ED00E066150020CD01001001BDFFFFF4
:100B0000054B064A1360064A136053609360D36036
:100B100013615361936170478080808000E400E03E
:100B200004E400E0024B9C46614489000160704788
:100B30004000003410B50400FFF75CFD0100200008
:100B4000FFF7F0FFFF232371BFF35F8F10BDC04697
:100B500010B50400FFF74EFD01002000FFF7E2FF93
:100B6000FF23A380BFF35F8F10BDC04610B5040004
:100B70000120FFF74BFD044B9C4660448000206041
:100B8000BFF35F8F10BDC0464000003483680B4840
:100B900010B5844661446244090112019A1859183B
:100BA00054684B6801209C4201D802D00020C0B29A
:100BB00010BD12680B689A42F9D8F7E7FFFFFF0FE4
:100BC0000A4B1968EFF3108072B60A68002AFCD04D
:100BD000BFF35F8F1B68BFF35F8F00221A6080F343
:100BE000108840BF002000217047C04644150020F7
:100BF000F8B557464E464546DE46E0B599460CAB3D
:100C00001C780DAB1B78060090469A460768002CAE
:100C100011D1BC7B002C42D065003B682D19033DEF
:100C200059194B78BB73002B00D1FB7300238B70D9
:100C30004B700B7004E065003B682D19033D59199A
:100C4000B2682A4B94464246E3181B0163441A607B
:100C50004A465A600A9A9A600B9ADA6000238B70AF
:100C60004B700B707B7B9B46002B2BD02200594690
:100C7000B8687B6898473A68002816D05B465846A3
:100C80005B005B445519033BA870D118D35C002B63
:100C900000D06B705B460C707B73A34513D0F0BC27
:100CA000BB46B246A946A046F8BD5B465B005B4426
:100CB000033BD3189C705119525D002A00D05A7022
:100CC0005B460B707C7342464B46307D00F0BAFBAE
:100CD000051E06D05346002B03D12100306800F0DA
:100CE000D5FD0E9B002BDAD01D70D8E7FFFFFF0F5C
:100CF000F0B5DE4657464E4645460023E0B58BB07C
:100D00000893674B8200D45800239B46099000F05B
:100D10000FFB626806000F00EFF3108572B61368D0
:100D2000002BFCD0BFF35F8F23689C465B7B99460A
:100D3000002B00D169E0A2685A4B90464B441B013E
:100D4000984443461A685B6810001900801BB9413B
:100D5000002900DC63E0099800F074FB0023002206
:100D6000984600230692079300239A466368BFF3D0
:100D70005F8F5A461A6085F310885346002B08D1BE
:100D80000028C4D10BB0F0BCBB46B246A946A04671
:100D9000F0BD089B414618024B461843D047626895
:100DA00006000F00EFF3108572B61368002BFCD01D
:100DB000BFF35F8F002F50DB33003B4302D023692A
:100DC000002B61D12368D97B002907D04A00521833
:100DD00019688C4649466244033A51709A7B002A4E
:100DE00001D14A469A734A46DA734B46E168013BA1
:100DF000CA5C0132CA545B4623616368BFF35F8FEC
:100E00005A461A6085F3108881E70023002298462D
:100E1000002306920793002300209A46A6E70029A4
:100E200002D1002800D096E70021604600F0ACFC1B
:100E300043461A685B680692079343469B689A4646
:100E40004346DB689846E3684B44013B1B780893B4
:100E50001B0203432361002088E72369002BB1D0E4
:100E6000069A079B921BBB41002B15DB5946049148
:100E700001210391494602914146019151462000CA
:100E80000091FFF7B5FEB6E700F052FA32003B00E2
:100E900012184B41002BE9DA0122034B5242E5E7DD
:100EA00030150020FFFFFF0FFFFFFF7F10B5144C30
:100EB0006368002B04D00A211248FFF733FE10BDEF
:100EC0002300114A1021206800F078FB032000F075
:100ED00023FA032000F020FB03200C4900F06CFAF9
:100EE000FFF788FB0A4B9C4603232375D0231B0680
:100EF0001B6860446375074B80006060DC60DAE764
:100F0000DC020020441500208D0B0010F10C0010B5
:100F10004000003430150020F0B54E464546DE4610
:100F20005746E0B585B0019310AB1B7806000393DC
:100F300000239946984600927268EFF3108B72B6C0
:100F40001368002BFCD0BFF35F8F3568AC7B002C9F
:100F50003DD067002B683F19033FDB195A78AA730D
:100F6000002A00D1EA73B168474A8C46009801997B
:100F7000A21812016244106051600E9991600F999D
:100F8000D16042469A705A701A706B7B9A46002B59
:100F900067D022001900A8686B6898472A68002863
:100FA00052D0534650465B005344D719033BB870A8
:100FB000D118D35C002B00D07B7053460C706B7340
:100FC00054454FD0F3681B19013B187800E000200E
:100FD0007368BFF35F8F42461A608BF31088002C52
:100FE0004FD04B46002B08D10002204305B0F0BC87
:100FF000BB46B246A946A046F0BD039B002B3ED09F
:101000000E9B00200F999847030004000D000B432E
:1010100035D000290ADA009A019B121BAB410092DD
:101020000193002B0ADB039B994685E700F080F9CA
:1010300024184D4100940195002DF4DA0123134C3E
:101040005B4200930194EEE753465B005344033B3D
:10105000D3189C70D119D25D002A00D05A70534623
:101060000B706C73307D009A019B00F0EBF98146A8
:101070000028A7D02100306800F008FCA2E700207B
:10108000B4E701204042B1E7FFFFFF0FFFFFFF7F02
:10109000F0B504000D0006267642F717C64636194D
:1010A0006F4100B584B08F4214D811D000F040F9E0
:1010B00032003B00121A8B41002B15DC002B3ED076
:1010C0002000290000F068F904B080BCB846F0BDEB
:1010D0008642EBD90026002700F02AF932003B00B7
:1010E000121A8B41002BE9DD002302930193154B6B
:1010F0003200009314483B00FFF70EFF0028DFDBAF
:1011000000239846BC46114A114F7B6A9C4504D87F
:10111000B96A8E42D4D99C45D2D11168EFF31080C0
:1011200072B60B68002BFCD0BFF35F8F1368BFF360
:101130005F8F4146196080F3108820BFE5E7002AE1
:10114000BED0D1E7C10B0010DC0200204415002006
:101150000040054070B5060000F0EAF8FA220400ED
:101160000D00002330000021920003F069F80019FF
:101170006941002902DBFFF78BFF70BD01200149A7
:101180004042F8E7FFFFFF7FF0B5EFF30583CE465F
:10119000474680B505000C0085B0002B12D02C4AC4
:1011A0000020536A9C4203D8926A0130AA4204D3B9
:1011B00005B0C0BCB946B046F0BDE01A421E904131
:1011C000C0B2F5E7234E02930193234B0200009334
:1011D00030000B00FFF7A0FE031EE0DD20BF7168AA
:1011E000EFF3108772B60A68002AFCD0BFF35F8F56
:1011F000DAB294463068427B62451DD0FF221A4025
:101200005100894601689144884649464144033962
:101210008978002913D0F1681B0A88464244013AB4
:101220001278DBB29A420FD07368BFF35F8F00224F
:101230001A6087F31088B2E7FF221A40EBE73269A1
:101240009342F1D13161EFE7614600F01FFBEBE71C
:1012500000400540DC020020C10B0010F0B5EFF3A8
:101260000582D6464F4646461000C0B51038EFF30B
:10127000108872B6214C2368002BFCD0BFF35F8F1F
:101280000123190081401E4D1F006963AA461D4DB0
:1012900029601D4D2E78AC463500C5402F402B42AD
:1012A00009D1BFF35F8F276088F31088E0BCBA468E
:1012B000B146A846F0BD5346144D5F6A83005D59A0
:1012C000AF420ED3124A8E439B5862461670BFF34C
:1012D0005F8F0022226088F31088002BE6D09847A9
:1012E000E4E70C4B92009C46624413681360BFF322
:1012F0005F8F0023236088F31088D7E7280100D090
:10130000004005403C70054069150020481500204C
:1013100094120020D03F054010B50100024A034856
:10132000FFF7EAF810BDC046147D001064150020D8
:10133000034B596A0A00986A596A8A42FAD170477F
:101340000040054070B504000D00124A536A1900B0
:10135000966A536A8B42FAD13000190024184D4125
:10136000AB4211D80ED02B000A494A6A9A42FCD3EC
:1013700007D1084A02E0516A994202D1916AA1421A
:10138000F9D370BDA642EED9012301246442E517CA
:101390005B42E9E700400540064A536A9942FCD89F
:1013A00007D1044B02E05A6A914202D19A6A824202
:1013B000F9D370470040054070B504000D00EFF30D
:1013C000108672B61A4A1368002BFCD0BFF35F8FE9
:1013D000002D1BD02000FFF73BF9164981420AD0AF
:1013E0002000FFF73DF901212000FFF71FF901233D
:1013F000A340114A1360114BA400E550BFF35F8F67
:1014000000220B4B1A6086F3108870BD0B4BA200B4
:10141000D5500122A2400A4920000B7893430B705B
:101420000449FFF73BFA00212000FFF7FFF8E5E74A
:10143000280100D05D120010386005409412002091
:1014400069150020F0B54F46D6464646C0B50700A0
:101450002C4C616A0D00A66A616AA942FAD18B42DE
:1014600008D805D00120E0BCBA46B146A846F0BD78
:10147000B242F7D9EFF3108A72B623480168002907
:10148000FCD0BFF35F8F0125BD4020491D4C88462D
:10149000097889462943C9B28C464146604608709E
:1014A000391D1B48890065630A51B9000B50216A38
:1014B0000020294219D0616A0800A66A616A814247
:1014C000FAD18B4219D801D1B24216D8CC4516D0E8
:1014D0000C4B1F201D625D6301230740BB400D4A7A
:1014E0001E38136043464A461A70BFF35F8F0022CE
:1014F000054B1A608AF31088B5E70020F5E7012054
:10150000F3E7C04600400540280100D069150020DF
:101510004815002080E200E0EFF3108C72B60A4913
:101520000B68002BFCD0BFF35F8F01238340074A79
:101530000748136202789A430270BFF35F8F00235B
:101540000B608CF310887047280100D000400540E4
:101550006915002070B5050014001600002915D08B
:101560000C00002A12D080686B6898472968002810
:101570000ED073009B196200033B1219CB18033A7B
:101580009C7088188A5C002A15D10670200070BDF6
:1015900063001B197200033B9219CB18033A9E702B
:1015A00088188A5C002A02D104703400EEE75A7071
:1015B00004703400EAE75A700670E7E730B58360DC
:1015C0000023CCB243730133047342608373C4734A
:1015D0000D000068012C06D9421C0133DBB21370E8
:1015E00003329C42F9D1FF2129404B0059180023B6
:1015F00040180338437030BDF8B5CE464746060064
:101600000C0080B5002907D04D0003686D18033D1C
:101610005A195778002F04D12000C0BCB946B046F3
:10162000F8BD7900C9190339884643445978894679
:1016300000215970517073683A0021008068984702
:101640003368002814D042469A18947059195B5D8B
:10165000002B00D053700F70270049463000FFF771
:10166000CBFF390002003000FFF774FF0400D3E71E
:10167000424641465D19AF709A185B5C002B00D062
:101680006B701470E9E7C046F0B557464546DE4634
:101690004E46E0B50D006B0001685B19DF1E0400CB
:1016A000C85D83B00192CA19002850D043001B18AE
:1016B000033BCB185E78B446002E1AD1019E002E53
:1016C00042D0E67B002E04D073009B19CB18033B5D
:1016D0005D70A37B002B00D1A573E57300282FD18B
:1016E0000023537003B0F0BCBB46B246A946A046E7
:1016F000F0BD72006244033A89184A78904600228D
:101700004A7091465A70010032002000FFF722FF14
:1017100043468246002B07D05B0021684344033BCD
:10172000CB185A78002A16D1424651462000FFF7BE
:1017300011FF2168019BCA19002BC2D10028CFD00C
:1017400043001B18033BCB1800219970C8E7019B8D
:10175000002BB6D1C4E75000801803380918487828
:10176000834648464870587041462000FFF7F2FE15
:10177000594680462000FFF73FFF41460200200007
:10178000FFF7E8FE8046CFE7F0B557464546DE4610
:101790004E46E0B583B00191457B04006B000068C4
:1017A0005B19DF1EC15DC219002952D04B005B18C6
:1017B000033BC3185E78B446002E1CD1019E002E58
:1017C00044D0E67B002E04D073009B19C318033B62
:1017D0005D70A37B002B00D1A573E573002931D187
:1017E000002328005370617303B0F0BCBB46B246BF
:1017F000A946A046F0BD72006244033A80184278C0
:1018000090460022427091465A7020003200FFF745
:10181000A1FE43468246002B07D05B00216843446B
:10182000033BCB185A78002A17D142465146200074
:10183000FFF790FE019B01002068C219002BC0D168
:101840000029CDD04B005B18033BC31800209870D3
:10185000C6E7019B002BB4D1C2E7500080180338C3
:101860000918487883464846487058704146200019
:10187000FFF770FE594680462000FFF7BDFE414647
:1018800002002000FFF766FE8046CEE770B5040038
:1018900000292CD0437B8B422ED00568480040188D
:1018A000033828188278002A21D053009B18033B64
:1018B000EA5CEE188A4202D11BE0002A08D05300ED
:1018C0009B18033BEB185A788A42F6D142785A703B
:1018D00000230122837043702000FFF7D5FE617B57
:1018E00002002000FFF736FE6073012000E00020B8
:1018F00070BD43783370EBE701221900FFF7C4FE97
:1019000060730120F4E7C046F8B5CE4647460400B0
:1019100080B506200E0000F023FA051E51D0524B70
:101920005249E21853425A418023DB039C469205F8
:101930004F4B62441A604F4B1A6010008B689843FB
:10194000FBD1494B8021E3185A4253414A4A5B007C
:1019500049009952062000F003FA3100C00001F05E
:1019600051FEC30932D14022012190466162A36237
:10197000256BEB0736D427008026E36A00232C373B
:1019800076013E4333600620256300F0E9F94146C5
:10199000800001F037FE236B05009846DB073BD43F
:1019A0006022E36A5A406E23134033604346236348
:1019B000802310229B013B431A60304B2363032397
:1019C000A3642800C0BCB946B046F8BD2C4A934277
:1019D0003FD900232B492C4A6162A362256B9046B4
:1019E000EB07C8D52200C02330329B011343234AA2
:1019F00006201A60666AA26AB601B61800F0B0F94D
:101A0000224901F0FFFDB6020100300001F0FAFDAD
:101A10000021FFF797FCAEE72200C02330329B0184
:101A20001343164A06201A60636AA26A9B0199460C
:101A3000914400F095F94B4614499B02994601F0F8
:101A4000E1FD0100484601F0DDFD0021FFF77AFCD1
:101A5000A6E77F229901884610400130400819000E
:101A60008044030082E7C0460080FCBF00C0004005
:101A700000E0004000F00040581500200103000085
:101A8000FEFF0000FFFF0000C0FF3F004E0E000001
:101A900030B50C2083B000F0B9F9FEF725FD002821
:101AA0000ED0994B994A1A605A609A60DA601A61AE
:101AB0005A619A61DA611A62954A5A6203B030BD7E
:101AC000944CA06700F0AAF90122934B1A60636C52
:101AD000012BFCD10322914B1A608E4A936B012B90
:101AE000FCD1013301218E4A8E480093043300F06B
:101AF0003DF905238C4A009301218C4800F036F90A
:101B00008B4B5A68FF2A02D8802252005A608022EA
:101B10007D4C824B21691201854D1A60002907D046
:101B2000606901F06FFD431C5800C0180338FDD2F6
:101B3000E0217F4B02201A681140802252012A4383
:101B400011601968484003210140116004219A681E
:101B50001142FCD08022802192012A4309011160A8
:101B6000802252005A60734B2361734B5968FF29DE
:101B700000D85A600321684A6F4B116002399A6895
:101B80001142FCD0E0201A681040802252011A4312
:101B90001060186848400321014002201160664926
:101BA0008A681042FCD080229201134380221201E5
:101BB0001A608022614B52004A606361604B596831
:101BC000FF2900D85A6080225E4BE16912015C4D0A
:101BD0001A60002907D0606901F014FD431C580009
:101BE000C0180338FDD2E02255490B681A40802303
:101BF0005B012B431A60802380229B012B4312013F
:101C00001A608022414B52004A60E3614E4B596892
:101C1000FF2900D85A6080224C4B216A12014A4D9C
:101C20001A60002907D0606901F0ECFC431C5800E1
:101C3000C0180338FDD2E02243490B681A408023C4
:101C40005B012B431A60802380229B012B431201EE
:101C50001A60802380225B004B602C4BD2022362EF
:101C60003B4B5968914200D25A608022394B616ADD
:101C70001201374D1A60002907D0606901F0C2FCDB
:101C8000431C5800C0180338FDD2E02230490B68CD
:101C90001A4080235B012B431A60802380229B0122
:101CA0002B4312011A608023DB024B60184B6362E6
:101CB000294B5A68FF2A02D8802252005A6080229B
:101CC000264BA1691201244D1A60002907D06069D2
:101CD00001F098FC431C5800C0180338FDD2E022E4
:101CE0001D490B681A4080235B012B431A60802337
:101CF00080229B012B4312011A6080235B004B6002
:101D00000E4BA361DAE6C046B0120020006CDC0284
:101D10001BB70000008000403CB0004030B00040E5
:101D2000002F685900800240008C864700C00240A6
:101D300030800040001BB7003C80004040597307D2
:101D40005480004054B000406080004060B00040CB
:101D50006C8000406CB000404880004048B00040BB
:101D6000014B8000C0587047B0120020F8B5040045
:101D700021481D0017000E0001F044FC010038004E
:101D800001F040FC069B29041B0319432368002B28
:101D900020DB1A4B1A4DE21853425A4180235B0153
:101DA0009C461203174B62441A60174B1A601700C7
:101DB000AB689F43FBD1C022231D92011A4321230C
:101DC0002660A06013602368002BFCDA0823E16022
:101DD0001360F8BD3F2322681340B342D9D1A368F2
:101DE0001B051B0D8342D4D1EE22E368D2021340BF
:101DF0008B42CED1EDE7C046001BB7000040FDBFCF
:101E000000C0004000E0004000F000408023024A93
:101E10009B000343D362704700800540AA23064A13
:101E20001B0113602F230549D360054B19605368CC
:101E3000002BFCDA7047C0460040024000B0FA00B8
:101E4000006002402C4B2D4A70B51A602C4A2D4B75
:101E50002D491A6014008B689C43FBD12B4D2C4EEE
:101E6000B54208D2013E761BB60808CD984723003C
:101E70000134B342F9D1FFF70BFE264A214B1A6019
:101E8000214A9368DB43DB01DD09002BF9D14022B5
:101E9000214B224C224E9A675A671A67DA66B4427F
:101EA00008D223682000002B20D00834FEF750FE13
:101EB000B442F6D31B4E1C4CC022A168300002F085
:101EC0002FFAA660FEF788FBFEF71AFEFEF7EEFF7C
:101ED000164C174EB44208D2013E361BB60808CC49
:101EE00098472B0001359E42F9D170BD0834FEF7AA
:101EF00021FEB442D5D3DDE700E00040BFCDFBFEBC
:101F0000FE7F3C0000F0004000C00040780300204D
:101F100088030020FFFFFF0100F001407003002054
:101F2000780300200000002000ED00E0880300207E
:101F30008C03002000BEFDE710B5FFF7FBFFC04695
:101F40000FB400B5084883B002F04EFB049B002B91
:101F500007D005A91800019101F0DAFA034802F050
:101F600043FB0120FFF7E6FF387D0010DC7B00100B
:101F700010B50148FFF7E4FF487D00107047C046E8
:101F8000F8B557464E464546DE46E0B599460A9BAB
:101F900007009A460D9B8846934615000B9E9B07AB
:101FA00010D10C9B9E420DD29D1B14000E005D446F
:101FB00022004B46013431002020B847A542F7D11A
:101FC000B0460B9E002E27D0444675195346AA1BD7
:101FD000013E985D21004B46B847002EF6D1230004
:101FE0002C0098460D9B9B070FD55B46E51A0C9B72
:101FF000AB420AD94646984622004B463100202083
:102000000135B8470134A845F6D82000F0BCBB46DE
:10201000B246A946A046F8BD2C00E3E7F0B54F460E
:102020004646D646C0B584B098460EAB1B78129F84
:10203000994694460D9C109B119EBA0725D4002EFC
:102040004BD19C4200D3BFE001223A4092461F2C64
:1020500000D9B8E00C9A551E302201E0202C03D0A4
:1020600001342A55A342F9D85246002A0DD0A6427F
:102070000BD9202C44D00C9A551E302201E0202C84
:102080003ED001342A55B442F9D1FA064DD57A052D
:102090003FD4002C39D10F9B102B00D179E00F9B3E
:1020A000022B00D18AE030230C9A012413704B4696
:1020B000002B3FD02D230C9A135501340C9B624604
:1020C00000930397434602960194FFF759FF04B02B
:1020D000E0BCBA46B146A846F0BD012215003D401D
:1020E000AA463A422FD04A46002A02D10C323A423E
:1020F00000D0013E9C42BAD21F2CABD9202E27D94A
:102100002024FA06DAD57A0503D4A3422DD0A642BC
:102110002BD00F9B102B32D0022B20D0202CCDD0D7
:1021200030220C9B1B191A700134202CC6D04B4650
:10213000002BBFD17B070DD43B07BFD520230C9AC2
:1021400013550134BAE79C429FD21F2C00D881E777
:1021500020249AE72B230C9A13550134AEE7202C48
:10216000ACD00C9B1B1901343AE0631E012C92D0B9
:102170000F9A102A2AD0022A2FD01C00D0E7BB06C3
:102180000ED4202C9AD00C9B1A190134782313708A
:10219000C4E7BB060DD478230C9A01241370BFE763
:1021A000202C00D18AE758220C9B1B191A7001348D
:1021B000B4E758230C9A01241370B1E70C9A6033EA
:1021C00001241370ACE7202400265EE7023CBA0627
:1021D000E9D40C9A12191C00D8E70C9A9246534481
:1021E00062221A709AE7C04610B5002800D110BDCF
:1021F00002F0AEF9FBE7C0460B0010B5002802D094
:1022000049681B68984710BDF0B5DE4657464E46F4
:102210004546E0B59BB09B46249B89469846259B46
:102220000B900C924046424619009A4601F0B3FCCE
:10223000002800D0D8E0012240465146774B524258
:1022400001F0A4FC002800D0CEE001224046514617
:10225000734B524201F084FC002800D0C4E00022FD
:1022600000234046514601F07BFC002800D0B9E134
:10227000424653460A9209938023289ADB001A406B
:102280000E92289A1A4201D1062326930A9A099B94
:102290001600134300D0C7E0289B002500261B052D
:1022A00000D49BE100230D93269A0D9B9A4200DCFB
:1022B0009FE1D01A431E26938023289ADB001A43FD
:1022C0000023002728920D93279B0024BB4200D9AE
:1022D000DC1B0223289A1A400E92289A134203D03C
:1022E0007B427B415B421C400D9B002B07D00A9830
:1022F00009992A00330001F0D2FB0A9009910022CB
:1023000000234046514601F02BFC002805D08020D8
:1023100000068446099961440991289A414B0B9D16
:1023200013400493269B0A9A0293099B03940092FC
:10233000019349465B4628000C9A00F08BF9040093
:10234000002F62D0289B220098061F23C0179843B5
:10235000631C984649465B466530A8470D9B00259F
:10236000DA179C18DB0F9A465440013F01E0202DFC
:1023700013D00AAA94461F23200063440A21013582
:102380005E1901F03FF93031317020000A2101F06F
:1023900039F926000400092EE9D805230693002305
:1023A00004930A330393534605970B9F029312AB92
:1023B000009342465B46494638000195FFF72EFEE2
:1023C0000E9B0400002B20D00C9BC51A279BAB4210
:1023D0001BD91E0022005B46494620200135B84724
:1023E0000134AE42F6D810E0289B42460493279B66
:1023F00049460393269B0B98029353460092019300
:102400005B460C9A00F026F9040020001BB0F0BCDB
:10241000BB46B246A946A046F0BDC046FFFFEF7FCF
:10242000FFFFEFFFFFF7FFFF734B099F9C4678000C
:10243000400D604401F0C2FB704A714B01F04DFB4E
:10244000704A714B01F022FB3B03704A1B0B1A438D
:1024500004000D00300011006D4B002201F00DFB57
:102460006C4A6D4B01F039FB02000B002000290083
:1024700001F00CFB01F0BAFB0D9001F09FFB674AE5
:10248000674B04000D0001F028FB0022654B01F0B2
:10249000FDFA01F0ABFB644A0600644B2000290002
:1024A00001F01BFB040030000D000F9601F086FBCD
:1024B0005F4A604B01F011FB02000B002000290075
:1024C00001F0DBFA02000B0006000F0001F005FB33
:1024D000320004000D003B003000390001F0D6FA54
:1024E000002210901191544B2000290001F0D7FADE
:1024F0000022524B01F0CAFA02000B002000290012
:1025000001F0CDFA00224E4B01F0C0FA02000B00A0
:102510002000290001F0C3FA0D00802104003200E0
:102520003B000020C90501F0A8FA02000B002000C2
:10253000290001F0ABFA02000B001098119901F08C
:10254000AEFA0022314B01F0A1FA3E4B0F9C9C46A3
:1025500064440022230501F0C0FA05000E000200C9
:102560000B000A98099901F0FBFA00280AD00D9B8C
:102570002800013B31000D930022304B01F08FFA0F
:1025800005000E00C6270D992B0063318F42BF4115
:1025900028997F420437090500D495E6334300D1DA
:1025A00082E6099C284A2100284B0A9801F0E6FAA5
:1025B000002808D000222100254B0A9801F0D0FA0B
:1025C000002800D070E6269B002B00D17CE60E9BF5
:1025D0005A1E9341269AD31A269375E600230427A0
:1025E0000D9371E643460A9380231B0653440993D7
:1025F00042E6002326935FE601FCFFFFFB799F5034
:102600001344D33FB3C8608B288AC63F0000F03F15
:102610000000F83F61436F63A787D23F71A3790938
:102620004F930A400000E03F1655B5BBB16B024026
:10263000EF39FAFE422EE63F00002C400000244015
:1026400000001840FF0300002D431CEBE2361A3F48
:1026500080842E41F0B54E46DE4657464546E0B5ED
:1026600097B09946209E219F229B834698460791CA
:102670000C923B0032003000390001F08CFA002847
:1026800000D0A9E1012230003900CA4B524201F0CA
:1026900067FA002800D0E1E0012230003900C64B83
:1026A000524201F073FA002800D0B7E00022300057
:1026B0003900C24B01F06AFA002800D099E00022EC
:1026C00030003900BE4B01F04BFA002800D090E0FA
:1026D000002200233000390001F042FA002800D027
:1026E000B1E000230D93249B5B0501D4062398469B
:1026F00008AB9C461722002430234146624404E084
:10270000013413550139202C01D00929F8D8884605
:102710003000390001F06AFA4346DA00A94B05009F
:102720009B181A685B680892099301F047FA020047
:102730000B003000390001F0A0F9089A099B01F064
:10274000CCF90A900B9101F075FA824601F032FA49
:1027500002000B000A980B9901F08FF900229A4BA6
:102760000A900B9101F012FA002800D1C0E0012379
:102770009C46E244504601F01DFA02000B00089806
:10278000099901F0F3F9002802D000239A46013597
:102790004346002B6AD008AB17269C460895664432
:1027A000554614E001235B4243440A2128009A461F
:1027B00000F028FF013430313719397028000A2120
:1027C00000F020FF092D00D8D0E0D0460500202CD5
:1027D000E8D10EAB98460323249A1340012B00D175
:1027E00096E02023249A01930392239A434602926F
:1027F0001EE0249B58460493239B00960197039365
:1028000043460C9A029307994B46FFF7FDFC17B01D
:10281000F0BCBB46B246A946A046F0BD249B5B0770
:102820000ED40322694B24990192039123990291BA
:10283000009358464B460C9A0799FFF7A1FBE6E731
:102840000422634BEFE73B0032000020002101F03F
:1028500014F9012306000F000D9344E7249B039312
:10286000239B0293042301935A4BE1E7280001F0D4
:10287000A5F902000B003000390001F0FEF8524BC0
:10288000002206000F0001F06BF90EAB98460028FD
:102890000AD10022300039004B4B01F077F90028B3
:1028A00002D1EB0700D50135202C94D008AA94461C
:1028B0001723280063440A2101341E1900F07AFE10
:1028C0003031280031700A2100F074FE051EEBD172
:1028D0000323249A1340012B1BD0202C00D180E726
:1028E0000D9B002B35D02D224146631C0A5579E7FC
:1028F00000220A980B99344B01F032F9002800D0DD
:1029000046E75346002B51D101239C46E2443FE762
:102910002024239B002BE0D00D9B002B03D1249A75
:102920000C33134202D0239B013B2393239BA342EE
:10293000D3D908AB9C46172230236244202C00D107
:102940004FE72399013413558C42C6D0202CF8D17F
:1029500047E7249B5B0724D4249A2300120700D462
:1029600040E72022414601330A553BE75746089D80
:10297000202C00D12DE7220030214046002F09D025
:102980000132B154202A00D123E7D3431B191B186D
:10299000002BF5D10EAB98462E234146541C8B5488
:1029A00082E72B224146631C0A551BE7DB0700D454
:1029B000EEE6A9E7FFFFEFFFFFFFEF7F65CDCD411B
:1029C00065CDCDC1507F00100000E03F547D001068
:1029D000587D0010647D0010249B0393239B029379
:1029E00003230193004B23E7607D0010F0B5DE4622
:1029F0004E4657464546E0B59FB01C00289B914681
:102A00000993C94AC94B8B4608901A60002900D126
:102A100018E2002320789A46002800D11AE2260006
:102A20001D005C460AE02A006F1C4B46089D2100F1
:102A3000A8473D0001363078002870D02528F2D113
:102A400010239B46083B9A46043B9846023B0021D4
:102A50009C46721C107816000300203BDBB2102B42
:102A600003D8B34F9B00FB589F460300303B092B14
:102A700032D900230A932A2868D0002398462E28AA
:102A80003ED00300683BDBB2122B1CD8A94A9B0046
:102A9000D3589F46012301321943DBE763460132D5
:102AA0001943D7E7434601321943D3E75B46013266
:102AB0001943CFE7534601321943CBE780235B002C
:102AC0007078194301360300253BDBB2532BAAD89B
:102AD000994A9B00D3589F4600270300B800C019AD
:102AE00001364000C018337830381A00303A0700F9
:102AF000092AF3D90A901800002398462E28C0D13D
:102B000080237078DB0019430300303B721C092BD3
:102B100000D8A1E12A2800D1B2E11600B1E7A3460E
:102B2000AA462C00D14503D801235B424B449A4668
:102B30004B46524659460020089DA84720001FB02A
:102B4000F0BCBB46B246A946A046F0BD099B40CBAF
:102B50000A96002E03DB50780993561C8DE728381F
:102B6000014370420A9009935078561C85E77828F3
:102B700000D1DFE1582800D14CE26F2800D14FE3AB
:102B8000622801D100F030FC10230A009A430B9216
:102B9000692801D000F0A9FC0A230C934B0500D54D
:102BA000D0E10B9A802311009B0019408B461A42FA
:102BB00000D0A1E2802311005B0019408A461A422E
:102BC00000D0B6E313005B0600D5EDE213000999CF
:102BD0001B0601D400F076FC08C91BB2D8171A18DE
:102BE000424092B209919346DA0F1292002B09D11A
:102BF000802310220B99DB000B4091430B91002B9B
:102C000000D0E4E20B9A6123920600D541230EA97D
:102C10001F228C46DBB262440A3B5F461395A346F3
:102C200055460C9CB2460D9316000AE03033DBB2D9
:102C300001357355A74200D2EDE2202D00D1EAE222
:102C400007002100380000F0DDFCCBB20929EDD9E6
:102C50000D9A94466344DBB2EAE780239B007078C8
:102C6000194301362FE77078682800D1CDE1802321
:102C70000136194327E770786C2800D1BFE1802323
:102C80005B00194301361EE7462800D19BE107226D
:102C9000099B0491073393430A9A19000392424611
:102CA00002920CC908980092019309912A004B46A0
:102CB0002100FFF7CFFC01360500BCE62A006F1C9F
:102CC0004B46089D21002520A84701363D00B2E66D
:102CD0008B0700D4ADE1099B2A009A466B1C9846ED
:102CE000534601CB21009A46089F4B46C0B2B847D5
:102CF0000A9B9C466544012B00D886E2089B474608
:102D0000B04626004C4699463A0023000137310070
:102D10002020C847AF42F7D1A1465346340046466B
:102D20000993013687E6C046ED2900102C150020D6
:102D30006C7D0010B07D0010FC7D0010099B04CB61
:102D40009B4643460992002B00D1C6E013789C466F
:102D5000002B00D1BDE34346013B099A0133D01853
:102D60000A9F130001E0834203D05A780133002AFE
:102D7000F9D1099A0A979B1A0B9380230A00DB006A
:102D80001A400C92194204D00B9B434501D943468B
:102D90000B9302231A000A400D920B4200D187E1E7
:102DA0006046002800D168E10C9B002B00D10DE1AA
:102DB000A844C246099B57465B1B9846089BB246EF
:102DC0002A0026004C46994609E023003100551C94
:102DD000C8474346585D002800D126E12A009742A3
:102DE000F3D1A1463D00340056460D9B002B00D088
:102DF00043E15B46013609931DE6099B1A0008CAA8
:102E00009246002B48D0212211438B460EA88446BF
:102E10001F216144099500220F27A4460D0002E0FE
:102E2000202A0CD00B003C001C4020003730092C1D
:102E300000D807380132A85419090F2BF0D864467E
:102E4000099D32E0DC4B2078089300239A46002845
:102E500000D0E4E5002465E6434606000A9F98009A
:102E6000C018013240008019167803003000303855
:102E7000303B0928F3D93000984616000A9700E63F
:102E8000099B023604CB9046D2434046D2171040ED
:102E9000804609933078F4E51022080090431132FF
:102EA0001043834600224905B0D55B4606930823AC
:102EB000059343460493102303930023029316AB18
:102EC000019200932A004B4621000898FFF7A6F8CC
:102ED0005346050001360993ADE513789C46002B57
:102EE00000D1F7E202235B4237E7202302009A4336
:102EF000472A04D180231B01194302239843452804
:102F000001D1202319430722099B049107339343DE
:102F10000A9A19000392424602920CC9089800923C
:102F2000019309912A004B462100FFF76DF9013604
:102F3000050080E510230C930C230A009A430B92A2
:102F40004B0503D501230B9A9A430B92692800D1B4
:102F500027E6642800D124E60B9A802311009B0009
:102F600019408B461A4200D066E1802311005B00B5
:102F700019408A461A4200D039E213005B0600D598
:102F80003CE113001B0600D4A6E2099B04CB12040B
:102F9000120C934609935B46002B00D09AE10B9AE2
:102FA0001033110099430B91520500D492E1002394
:102FB0009A460B9B06930A9B0593434604930C9BEE
:102FC000039300230CE12023194360E6099B0A9A2E
:102FD0005B1B98464B4691461F00B2462600089C54
:102FE0002A003B003100A04743460135585D0028C8
:102FF000F6D14A463400B94656460A92F5E6C02351
:103000009B00B078194302365DE5C023B0781943C0
:10301000023658E50C230A009A4314331A43103B36
:103020000B920C934B058DD496E7A146340056467F
:10303000DBE60A9A012A00D853E26B1E9F18089B10
:10304000B04626004C4699462A002300013531003F
:103050002020C847BD42F7D1A14634004646099B0F
:103060003A0001CB210098467D1C4B46089FC0B218
:10307000B847434601360993DDE40B9B0A9AA846FC
:103080009A4200D8B5E694466544ED1A089B474637
:10309000B04626004C4699463A00230001373100DD
:1030A0002020C847AF42F7D1A14634004646A0E6EB
:1030B0000B9A0A99531C914200D814E24B199B1A9F
:1030C0001F00089BB24626004C4699462A00230062
:1030D000013531002020C847BD42F7D10A9BA146E7
:1030E00001330B93099B34001B7856469C4660467F
:1030F000002800D058E67CE60722099B073393435B
:10310000013294469C4462465F6809921A68FB1734
:103110001093119310981199030053400E930B00D4
:103120007B400F9394460E9A0F9B121A8B410E927E
:103130000F93FB0F6246129300233A439B463DD008
:103140000B9A6123920600D541230022DBB20EA91F
:103150000A3B8C4692460D9343461F3262441395B8
:10316000159655460E9E0F9FA24690460C9C1493B2
:103170000CE03032D2B2434601355A55BB4500D13E
:103180008AE1202D00D18AE106000F0022000023F1
:103190003000390000F074FAD2B2092AE9D90D9B47
:1031A0009C466244D2B2E6E7FF23099904C9134062
:1031B0001A00099117E5C0467D1F00100B9A1033C5
:1031C000110099430B915205BAD500239A460B9BE7
:1031D00006930A9B0593434604930C9B0393129B0F
:1031E00002935346019316AB2A00009321004B46ED
:1031F0000898FEF713FF013605001CE4FF22099B27
:1032000002CB11408B460993C5E6534645460993C8
:103210000136FFF710FC56465C46AA46139DD6E7DA
:1032200008230C930B910B99642800D084E60B9B28
:103230005B0500D586E6B4E40722099B0733934378
:10324000013294469C44624609921A685B681000F9
:103250009B4613005A46134307D10B9A10331100B3
:1032600099430B91520500D5A1E60B9A6123920672
:1032700000D541230022DBB20EA90A3B8C469246C0
:103280000D9343461F3262445F461295A34655464E
:103290000400B24690460C9E13930DE03032D2B239
:1032A000434601355A550023BB4200D100E1202D91
:1032B00000D100E104000F0032000023200039009B
:1032C00000F0DEF9D2B2092AE8D90D9B9C4662448F
:1032D000D2B2E5E70B9A6123920600D54123DBB217
:1032E0000EA90A3B1F228C460D93230062445C46C4
:1032F0001295170055469B46B2460C9E08E03033A7
:10330000DBB201357B55B4420ED3202D0CD0040026
:103310003100200000F076F9CBB20929EFD90D9ADF
:1033200094466344DBB2ECE756465C46AA46129DDF
:103330003FE6099B1A0008CAD91713925A184A4047
:103340009246DA0F1292002B08D1802310220B999B
:10335000DB000B4091430B91002B2BD10B9A612387
:10336000920600D541230EAA1F279446DBB20A3BE2
:103370000D9567445D460993A3465446B2460C9E9C
:1033800008E03033DBB201357B55B4420ED3202D3B
:103390000CD004003100200000F034F9CBB2092930
:1033A000EFD9099A94466344DBB2ECE756465C4693
:1033B000AB460D9D0B9B2A0006930A9B21000593AB
:1033C000434604930C9B08980393129B0136029387
:1033D0005B46019316AB00934B46FEF71FFE139B13
:1033E00005000993FFF727FB02230C931AE7099BBB
:1033F00004CB92461293002A08D1802310220B9905
:10340000DB000B4091430B91002B2BD10B9A6123D6
:10341000920600D541230EAA1F279446DBB20A3B31
:103420000D9567445D460993A3465446B2460C9EEB
:1034300008E03033DBB201357B55B4420ED3202D8A
:103440000CD004003100200000F0DCF8CBB20929D8
:10345000EFD9099A94466344DBB2ECE756465C46E2
:10346000AB460D9D0B9B2A0006930A9B21000593FA
:10347000434604930C9B08980393002302935B46F6
:10348000019316AB00934B46FEF7C8FD129B050057
:1034900009930136FFF7CFFAB44200D871E6149BC6
:1034A00054460E960F97AA469846159E139D8EE693
:1034B000A64200D8FBE6139B56469846AA465C46B1
:1034C000129D76E508C9D8171A1842400991FFF7EE
:1034D0008AFB00230B9350E4099B04CB934609938A
:1034E00059E52F00BBE50B9301E6063B0C939AE6EA
:1034F00000B585B0039101210290009303481300A9
:103500004A4202A9FFF772FA05B000BDF921001086
:1035100010B5094A0300146884B0002C08D00122B9
:1035200000910648524203A9A047012004B010BDF3
:1035300001F05AF80020F9E72C150020E9210010CD
:1035400001480421014B1847100300207135001079
:10355000142310B50100188804331B88984710BD48
:10356000162310B50100188802331B88984710BD38
:10357000F8B54746CE4680B50F1E19D0142399469C
:10358000043304000025012698464B46188843461C
:1035900021681B88984701C4431E98410135404269
:1035A0000640AF42F1D13000C0BCB946B046F8BDCC
:1035B0000126F8E7124A936F9B0815D29066D166F0
:1035C000002905D0FFE7FFE7FFE7516F106F704755
:1035D00004B580210906C2175140002800D0C84315
:1035E00004F086FA002104BDF0B5146E556E576FD5
:1035F000166FFFF7E3FF1466556657671667F0BD51
:10360000000000D0114A936F9B0813D210665166D8
:10361000002905D0FFE7FFE7FFE7516F106F704704
:1036200004B5002801D00020C04304F061FA002155
:1036300004BDC046F0B5146E556E576F166FFFF798
:10364000E5FF1466556657671667F0BD000000D0A9
:1036500094464A4A926F9208624601D228E0C046D8
:10366000F0B5464E346E756E776F366F00F020F809
:103670009446424A14665566576716676246F0BD1F
:1036800094463E4A926F9208624601D254E0C04688
:10369000F0B53A4E346E756E776F366F00F04CF8B9
:1036A0009446364A14665566576716676246F0BDFB
:1036B000002B24DB11D000293EDA00B5C94340427B
:1036C00000D1013100F038F8C943404200D1013146
:1036D000DB43524200D1013300BD002AEBD1002868
:1036E00001D1002905D00020C90FC90701D1C0436D
:1036F000410800B504F0F4F90022002300BD00B534
:1037000000290ADBDB43524200D1013300F014F8F8
:10371000C943404200D1013100BDC943404200D1FC
:103720000131DB43524200D1013300F005F8DB43A5
:10373000524200D1013300BD002923D1002B18D102
:10374000002A0CD0BC460D4F38667A660021002353
:10375000FFE7FFE7FFE77A6F386F6746704700289B
:1037600001D00748010000B504F0BAF90022002397
:1037700000BD02000B00002000217047000000D0B7
:10378000FFFFFFFF002B00D0BFE0130C28D1002A61
:10379000E7D080B4114F39667A66FFE7FFE730B4AF
:1037A000040C7B6F396F1B0423433B667A66FFE78B
:1037B000FFE7FFE7C04684B27B6F3D6F1B042343E6
:1037C0003B667A66FFE7FFE7C04600232C042D0C1A
:1037D0007A6F386F00196941B0BC7047000000D0A3
:1037E000F0B594460025140E01D112020835140FCD
:1037F00001D112010435940F01D192000235D40F8A
:1038000001D152000135D40B0134254F7C66254C83
:103810003C660E0C93B2FFE7FFE7FFE73C6F6643A1
:10382000360C7703BE467343DF0B5B04C01AB94105
:10383000130C7343DB18C91ACE086643360CB64422
:1038400093B273431F0F1B01C01AB941130C73438A
:103850001F0B1B05C01AB941860D8F023E436643FC
:10386000360C092D24DB520A7243801A7703460A6C
:103870006643360C16235B1BDE40DF40BF196446EF
:103880006643821B7046043506330100D940A840C8
:10389000C01900D30131A24206D20023F0BD0000BE
:1038A000000000D0FFFFFFFF121B0130F3D3F1E750
:1038B00009277F1BFE406446A2B27243801A00D2E1
:1038C0000139220C7243130C1204821A99410B0025
:1038D0007046043513370100F940A840801900D321
:1038E0000131002B02D1A2420AD2F0BD013000D337
:1038F0000131121BFAD2013BF8D1A24200D2F0BD35
:10390000013000D30131121BF7E7F0B51C0C00D0D9
:1039100080E00CB400251C0A04D11B02160E3343B0
:10392000120208351C0B04D11B01160F3343120180
:1039300004359C0B04D19B00960F33439200023553
:10394000DC0B02D192185B4101351C0097186441D1
:103950000134464F7C66464C3C660E0CFFE7FFE7A1
:10396000FFE7C0463C6F6643360C7703BE4697B20E
:103970007743C01B00D20139C01B00D201399FB26E
:103980007743C91BC91B170C77437E04FF0B801BB1
:10399000B941CE086643360C0C2D33DBB644120B0E
:1039A0001F053A431B0B97B27743C01B00D2013966
:1039B0009FB27743C91B170C77433E043F0C801B13
:1039C000B941860D8F023E43664329277F1BFE4087
:1039D0000C3D7746AF40BF1930BCA2B2ABB27243C8
:1039E0007343801A9941220C7243130C1204801AFB
:1039F000994102000B000137001BA941F9D2781E42
:103A00000021F0BD0C277F1BFE4077467F0BAF40A7
:103A1000FF19E0E700245D1C07D0144F7D6639666E
:103A2000FFE7FFE7FFE7FFE73C6F95B29EB2654314
:103A30006643401BB141150C1E0C654366433604BA
:103A40002F0C3E432D04401BB141994204D2020089
:103A50000B0020000021F0BD01D19042F7D3801A65
:103A6000994101349942F2D3F6E70000000000D0FA
:103A7000FFFFFFFF48404140484018B41B4B5B68C4
:103A8000FC46019308BD04DF133D001018B4174B2A
:103A90001B68FC46019308BD00DF1D3D00109446E5
:103AA000134A926F920809D2624618B40F4BDB6832
:103AB000FC46019308BD0CDFD53F00100C4AF0B561
:103AC000146E556E576F166F6246FFF7EEFF084A89
:103AD0001466556657671667F0BD18B4034B9B68AC
:103AE000FC46019308BD08DF793E001090040020D9
:103AF000000000D0FFB550404240504059404B407C
:103B0000594000E0FFB5154F4C00640D03D0BC4296
:103B100004D10C0314D80020090D09055C00640DC4
:103B200003D0BC4204D11C030AD800221B0D1B0584
:103B300001264B4009D44B4003D58B4200D1824231
:103B4000FFBD9942FCD19042FFBD0B43DB180343FC
:103B50001343F5D0C9434918FFBD0000FF0700001B
:103B600000B5FFF7CFFF804100BDC04600B5FFF7AD
:103B7000C9FF01D9002000BD012000BD00B5FFF73D
:103B8000B9FF01D9002000BD012000BD00B5FFF73D
:103B9000B1FF804100BD012040054A00121804D841
:103BA0005A00121801D800207047012070470020E9
:103BB000704700000021002805D17047C117484018
:103BC000401AFAD0C90713B5064B1B6898470CBCBE
:103BD000441CA2401005120B0349091B0905194397
:103BE000114310BD401500201F04000010B54C000B
:103BF000620D8023D218DB00D21A5B057E2A10DD0D
:103C00009E3A13DACC170903490819435242D140AE
:103C1000640001341532202A05DAD040084360439D
:103C200010BD002010BD0846604310BDC80FC0186D
:103C3000013810BD18B4044B5B6AFC46019308BD03
:103C400024DF85410010000090040020132370B58C
:103C50001D78012D15D010DD1C48FFF781FC1C4C90
:103C600001008022200000F05BFB022D06D01948E5
:103C7000FFF76EFC184B186070BD154C174BA36412
:103C8000F5E7164B124C23606360A360E360236189
:103C90006361A361E36123626362A362E3622363FE
:103CA0006363A363E36323646364A364E3642365DE
:103CB0006365A365E36523666366A366E3662367BE
:103CC0006367A367E367A364D1E7C046534400007A
:103CD000900400204C33000040150020E13C00100F
:103CE00007B5604601880A0A0230DF2AFAD1C9B254
:103CF000820804D3028840880004104300E0006872
:103D0000014A5050039007BD900400200FB403BC3B
:103D10000CBCF0B50124E407634000E0F0B50C0DE5
:103D2000CF0F661E3605891B640503D3C943404285
:103D300000D30131640D03D0661CF60A07D0E41BE2
:103D400000207F00791C89078912803C24031D0D07
:103D5000DF0F6E1E36059B1B6D0503D3DB435242FE
:103D600000D301336D0D03D06E1CF60A07D0ED1B96
:103D700000227F007B1C9B079B12803D2D032F1B85
:103D8000661B58D4A446202E46DA20371400BC40C7
:103D90001D00BD40F24033412A4380185941CB0FEA
:103DA00005D0C943C043002264425041514162469C
:103DB0004D0D28D10D0D07D100281FD024194041E9
:103DC0004941013A0D0DF9D0640006D3013000D30A
:103DD0000131002C01D140084000013A0BD4941C61
:103DE000E40A04D112051144DB071944F0BDD907D8
:103DF000204B194300E0D9070020F0BD0029DDD198
:103E0000002CDBD1F0BD0132C6074008CD072843A6
:103E10004908002EE1D0D9E73C2E29DA203E403770
:103E20001400BC4000D00124F24014431A00BB40EF
:103E30001C43D317ACE7AC46202F08DA2036040029
:103E4000B4400D00B540F84039412843A5E73C2F68
:103E50000CDA203F40360400B44000D00124F84082
:103E600004430800B1400C43C117EAE710001900F1
:103E7000002494E70000F07FF0B50C0D661E3605B7
:103E8000891BE60A6405640D02D0651CED0A04D0A6
:103E9000002001210905803C2403A4461C0D671E57
:103EA0003F05DB1BE70A6405640D02D0651CED0AC3
:103EB00004D0002201231B05803C24037740644486
:103EC00097B484B296B27443070C7E43150C6F43CB
:103ED00080B26843361802D3012000043F18300432
:103EE000350C00197D41844688B29AB250430C0CBF
:103EF00062431F0C7C438EB27E43921902D301268B
:103F00003604A4191604170C3618674101BC81B297
:103F10009AB25143040C62431B0C5C4380B2584379
:103F2000121802D30120000424181004130C4018A6
:103F300063412D185E410020474106BC88B293B210
:103F400058430C0C6343120C544389B251435B1821
:103F500002D301210904641819041A0C09186241DA
:103F60006D1856410020474118BCF902720D1143EB
:103F7000F0026A0D1043ED020A0D03D16D194041A4
:103F80004941013B124E9B1B7600B3420ED26D009D
:103F900007D30130002671416646354301D1400800
:103FA00040001B05C918E4072144F0BD0BDA0133BA
:103FB00006D1013004D101314F0D01D04908F2E79B
:103FC000E1070020F0BD013631050020EBE70000DD
:103FD000FF030000F0B51C0D671E3F05DB1BE70A61
:103FE0006405640D02D0661CF60A04D00022012389
:103FF0001B05803C2403D0252D060026F6432E66A3
:104000001E096E66CE0FF619B44649004F0D02D058
:104010007E1CF60A03D000200021403F3F033E1BD8
:10402000B600B444013F7F05C91B49082E6F013615
:1040300076089C02950D25437543ED137543AD132A
:1040400001356D10F603761B0CB4CC02450D2C43E4
:10405000A2B2B3B25A43270C7B43350C6F43A4B2D0
:104060006C431B1902D3012424043F191C041D0CAA
:10407000A4187D4124196D41009A91B2ACB26143FC
:10408000170C7C432B0C5F4392B25A43A41802D303
:1040900001221204BF182204230C52187B41019CF8
:1040A0006C431B19520ED9010A434401A01A81B274
:1040B000B2B2514303145A43360C734387B2774369
:1040C000D617D21900277E4136049B191704160C07
:1040D0007F185E417316ED18F30100268033754199
:1040E000A90F06D16400690AE8055B0A184309D2E2
:1040F0002FE00422944480337541A90AA8059B0A45
:10410000184326D3404149412404009A019B0D00E5
:104110005543641B4343E41A95B286B27543170CAA
:104120007E43030C5F4392B25A43B61802D3012276
:104130001204BF183204330C52197B4152429C4185
:10414000002C02D40022013051414008CA0710431C
:10415000490802B06246D7079210084BD218084BA4
:104160009A4203D212058918C919F0BD0020002A0D
:1041700001DC3900F0BD01331905F5E7FD0300004E
:10418000FE070000002200B5203200F004F808000D
:1041900000BD000000220B150AD410B5944600F0B3
:1041A00031F81414013400DA0021CB17144C2047E5
:1041B0000020002170476244343A0CD40C2A07DAFC
:1041C00004009140904052422032D440214310BD1F
:1041D000D843D94310BD203207D40C4694405242F4
:1041E00020321141D040204310BD0800C9172032B1
:1041F00003D452422032104110BD1800190010BDE6
:10420000B74100100A0DCC0F531E1B05C91A5205E9
:1042100003D3C943404200D30131520D03D0531C94
:10422000DB0A07D0121B00206400611C8907891279
:10423000803A1203014BD21A70470000FF030000BE
:1042400051434343C9188C46110C83B24B4310B4FD
:10425000040C614392B280B2504362431C041B0CB5
:10426000001910BC59411304120CC018514161448B
:1042700070470000132310B512481C78FFF770F93F
:104280000100012C0AD003DD80220F4800F048F81D
:104290000E48FFF75DF90E4B186010BD0A4C542212
:1042A000200000F03DF80B4B6365A365E3652366D2
:1042B0006366A366E36623676367A367E3672362B6
:1042C000E361E5E753460000900500204C33000011
:1042D00040150020D942001007B5604601880A0A3F
:1042E0000230DF2AFAD1C9B2820804D3028840889A
:1042F0000004104300E00068014A5050039007BDDD
:104300009005002001480421014B1847200300209C
:1043100071350010014B1B68184700002003002076
:10432000014B5B681847000020030020030010B514
:10433000080011001B68984710BDC046F0B54646FE
:104340004F46D646C0B5437D80460E001700002B71
:1043500046D0002A3FDD4B1E9946244B0125002400
:1043600000209A460DE04B461B5D0D3B5A425341DF
:10437000325DDBB20A2A0BD02B00013401359F429B
:104380001ADD002CEFD14346325D1B7D0A2AF3D1A2
:10439000002BF1D1A04204DA4346211A1B683018E1
:1043A0009847434650461B6802219847013428002D
:1043B0002B0001359F42E4DC874204DD4346391A75
:1043C0001B6830189847F619013E33780D3B5A4266
:1043D000534142461375E0BCBA46B146A846F0BD0B
:1043E0000368110030009847F5E7C04614800010BC
:1043F000F0B5C6460C000968060000B5802906D055
:104400004B1C23606418267180BCB846F0BD0F4B6E
:104410001D68002D16D0231D98460D4F02E02D6912
:10442000002D0FD02B68002BF9D03B68002B01D05A
:10443000AB42F4D1280041462268FFF77FFF2D6987
:10444000002DEFD101230021DBE7C0461813002027
:104450001C150020F0B5DE4657464E464546E0B5F1
:1044600085B017001C0006000D00FCF761FF00235B
:10447000304A12184B41002B58DB2F4908008A465E
:1044800003F046FB01906B1C03D1300003F0EEFA01
:104490000500002C25D1294B9846294B1C68002C7F
:1044A00015D0002F20D1274F02E02469002C0ED018
:1044B0002368002BF9D03B68002B01D0A342F4D134
:1044C00020002A003100C0472469002CF0D1019B54
:1044D000002B27D105B0F0BCBB46B246A946A0468A
:1044E000F0BD194B9846D8E7164B994602ABDF1D35
:1044F0000A239B4602E02469002CE8D02368002BA5
:10450000F9D04B461B68002B01D0A342F3D12A00FF
:1045100031002000C0475B460122390020003B707B
:10452000C047E8E7504603F0D3FAD3E70122074B30
:104530005242A2E740420F00700300203D430010AA
:10454000181300201C1500202D430010FFFFFF7FD3
:10455000F0B5CE46474680B583B06B460600DD1DFC
:104560002870FCF7E5FE00231A4A12184B41002B75
:104570002BDB19490800884603F0CAFA174B81461D
:104580001C68002C14D0164F02E02469002C0FD0B8
:104590002368002BF9D03B68002B01D0A342F4D153
:1045A000200001222900FFF7C9FE2469002CEFD169
:1045B0004B46002B05D1300003B0C0BCB946B04615
:1045C000F0BD404603F084FAF5E70122054B524264
:1045D000CFE7C04640420F007003002018130020B0
:1045E0001C150020FFFFFF7F70B5040003F03EFAAA
:1045F00000230100050001222000FFF72BFF084BDC
:104600001C68002C06D06368002B05D098472469ED
:10461000002CF8D1280070BD2469002CF3D1F9E7F3
:10462000181300200A4A1368002B05D10CE01A0069
:104630001B691032002B07D09842F8D1002902D113
:1046400003691360016170470029FCD01060FAE72C
:1046500018130020F0B5CE46474680B5A5B004003B
:104660000D00FCF765FE00232A4A12184B41002B6F
:1046700049DB294E300003F04BFA00230700039377
:1046800022002B00254803A9FEF732FF039B80463A
:10469000002B14D1224B1C68002C06D06368002B21
:1046A0000BD098472469002CF8D1002F27D1404621
:1046B00025B0C0BCB946B046F0BD2469ECE7184B44
:1046C0001D689946002D22D0164C02E02D69002D60
:1046D00011D02B68002BF9D02368002B01D09D420C
:1046E000F4D1039B28001A0004A90193FFF726FECA
:1046F0002D69002DEDD14B4603951C68CCE73000A9
:1047000003F0E6F9D3E70122074B5242B1E70395E4
:10471000CBE7C04640420F0070030020F143001079
:10472000181300201C150020FFFFFF7F0FB400B5F9
:1047300083B004A901C90191FFF78CFF03B008BC45
:1047400004B01847F0B50D1E15DD0E4B0D271A6885
:104750000D4B4519D31859424B410C495B005E5E25
:1047600020210478A64207D093691942FCD1013078
:104770001460A842F5D1F0BD93691942FCD11760CD
:10478000F2E7C046601500200080FCBF58150020ED
:1047900030B504000D1E26DD002010211B4B013C0E
:1047A0001A689369194219D1013093691942FCD1F1
:1047B000136823548542F4D1154B1B68002B0CD091
:1047C00050239363516B183B34320B40110080220D
:1047D00052010A431360002815D030BD0C4B1B68F2
:1047E000002BEDD1F7E70A4B1B68002B0BD05022B2
:1047F0003821064B1B689A635A6B34331140802270
:1048000052011343196003204042E6E7601500207F
:10481000A4120020064B10B51B68002B06D0002107
:10482000044A12689163044A1068984710BDC04654
:10483000A412002060150020A81200201D4BF0B526
:104840001A68C64698461C4B0E00D31859424B4175
:104850001A4F14331C00050000B53B68002807D030
:10486000002B11D0164B3D601E6080BCB846F0BDD9
:10487000002BF7D0906300212000FBF7D7FE20002B
:104880001049FCF70BF8EDE720000E49FBF7E8FEB6
:1048900001212000FBF7CAFE4346502238211B6845
:1048A0009A635A6B343311408022520113431960CA
:1048B000D8E7C046601500200080FCBFA41200208D
:1048C000A81200201548001070B50C4E0D001C00F9
:1048D0003060002A03DB02211000FBF7CFFD002C23
:1048E00003DB02212000FBF7C9FD29003068FDF73A
:1048F0000BF801210248FFF795FE70BD60150020FE
:10490000300300209823C34AF0B5D3584E46994649
:10491000DE465746454601234C464946E0B51C4015
:104920008DB00B4200D1D4E0136D9B059B0F00D0DE
:1049300030E1802208A952008A800B8109A8012158
:1049400003F0EEF8C0225121B34B92001A65B34B2D
:1049500003919B46B24B08310493B24B02910593ED
:10496000B14B40390693B14B019108398A46079300
:104970004946412349229846AD4FAE4EAE4D383B95
:10498000490500D4C6E08022A34BAC4892051A65C5
:10499000437F09AC9A4683780193C18A884600F028
:1049A0001FFF082200212000FFF7B4FC022351461C
:1049B000637063714346019AA17022710121200046
:1049C0000B9303F0ADF80499B846039105993200B2
:1049D000029106995B46019107992C008A46494647
:1049E000C90600D49AE08B4B9D6D01232B4200D069
:1049F000DFE001239846884B03249B46904E09AF85
:104A000007E04346A3402B4232D102342036212C0A
:104A100054D0002D00D1C6E04246631E9A401300D8
:104A20002A42EED095435A463000936501F008F8CB
:104A30000028E6D0737FB278F18A300004930592A3
:104A4000069100F0CDFE082200213800FFF762FC3D
:104A500002230699059A7B70049BB960BB70012103
:104A600038003A7103F05CF84346A3402B42CCD0A7
:104A70005A46300093659D4300F0E2FF0028C4D001
:104A8000737FB278F18A300004930592069100F0AA
:104A9000A7FE082200213800FFF73CFC02230699FC
:104AA000059A7B70049BB96038000121BB703A7194
:104AB000023403F035F82036212CAAD1039B54464A
:104AC0009846029A019B002D28D029005D48FDF7E9
:104AD00037FA81235021DB009B464833049303912E
:104AE0000833083105930291403B40390693019108
:104AF000083B0839882789268A4680250793494636
:104B0000402348229846FF00F600383BED00490557
:104B100000D538E74946C90600D564E70826494666
:104B20000E4222D0802002273B49C0020865394945
:104B30009046C96C1C000F4217D0404809AD437F16
:104B4000C6829A4683789B4600F04AFE00210822DE
:104B50002800FFF7DFFB5346AB705B4601212800BE
:104B60006F702B71AE6002F0DBFF4B465B060BD41F
:104B70004B469B0646D44C453FD10DB0F0BCBB46DE
:104B8000B246A946A046F0BD8022234B12054446FA
:104B90001A65EDE7002308AA01219380138109A873
:104BA00002F0BEFFCEE6039B54469846029A019B54
:104BB000B4E7224C9D43626820001268164A936550
:104BC00000F03EFF002800D113E7637FA778E68A54
:104BD000200009AC984600F003FE082200212000C6
:104BE000FFF798FB0223637043462771A3700121EE
:104BF00020000B9602F094FFFBE649461248614004
:104C0000FDF79EF98022044B120610481A65FDF745
:104C100097F9C046000011500030115009040000FF
:104C200051040000590400001904000011040000A0
:104C30004104000049040000010400001C1300208E
:104C40003C130020188000104480001030800010B9
:104C500070B500F09FFD0C230D4C0E4DA36729008D
:104C60000520FBF71BFE2900FF220520FBF722FD94
:104C70008022002192000848FFF74CFB03232364A5
:104C8000064B074AE36490230120E25070BDC04602
:104C900000001150054900101C1300200086002060
:104CA0007B0400007047C0467047C046044B186D37
:104CB000C0239B001840431E9841C0B27047C046B5
:104CC00000001150064B10B5186D8005800F0128AB
:104CD00002D0022801D1002010BD0248FDF730F9B2
:104CE000000011505880001070B50D1E50D03D23AB
:104CF000DB4CE35C8B4200D10EE25D23E35CAB4214
:104D000000D1EDE17D23E35CAB4200D1CCE19D23FA
:104D1000E35CAB4200D1A9E1BD23E35CAB4200D12F
:104D20007FE1DD23E35CAB4200D15CE1FD23E35C8A
:104D3000AB4200D139E11E23FF33E35CAB4200D12B
:104D400012E13E23FF33E35CAB4200D1EAE05E2395
:104D5000FF33E35CAB4200D1C2E07E23FF33E35C70
:104D6000AB4200D19AE09E23FF33E35CAB4200D11B
:104D700072E0BE23FF33E35CAB424CD0DE23FF3353
:104D8000E35CAB4226D0FE23FF33E35CAB4200D0B2
:104D900070BDF0235B00E25C002AF9D0FF22012104
:104DA0005200A25C501C8140AE4892004165AE4961
:104DB00020008C46002162445160E1540433E358E2
:104DC000E1301960F4235B00E358FF30196000F014
:104DD00007FDDDE7E0235B00E25C002AD3D0EF2291
:104DE00001215200A25C501C81409E489200416506
:104DF0009D4920008C46002162445160E1540433F7
:104E0000E358C1301960E4235B00E358FF301960B8
:104E100000F0E6FCB7E7D0235B00E25C002AADD0EF
:104E2000DF2201215200A25C501C81408D4892007B
:104E300041658D4920008C46002162445160E15457
:104E40000433E358A1301960D4235B00E358FF30EA
:104E5000196000F0C5FC91E7C0235B00E25C002A0A
:104E600000D186E7CF2201215200A25C501C814074
:104E70007C48920041657C4920008C4600216244B8
:104E80005160E1540433E35881301960C4235B005E
:104E9000E358FF30196000F0A3FC6AE7B0235B0021
:104EA000E25C002A00D15EE7BF2201215200A25C31
:104EB000501C81406B48920041656B4920008C4634
:104EC000002162445160E1540433E35861301960B9
:104ED000B4235B00E358FF30196000F081FC42E727
:104EE000A0235B00E25C002A00D136E7AF2201215B
:104EF0005200A25C501C81405A48920041655A49B8
:104F000020008C46002162445160E1540433E35890
:104F100041301960A4235B00E358FF30196000F0B2
:104F20005FFC1AE790235B00E25C002A00D10EE7E9
:104F30009F2201215200A25C501C814049489200EE
:104F40004165494920008C46002162445160E1548A
:104F50000433E3582130196094235B00E358FF3099
:104F6000196000F03DFCF2E680235B00E25C002A61
:104F700000D1E6E68F2201215200A25C501C814044
:104F80003848920041653849601C8C4600216244D3
:104F90005160E1540433E358FF30196084235B000F
:104FA000E358196000F01CFCCBE6E023E25C002A29
:104FB00000D1C0E6FE220121A25C501C814029489C
:104FC00092004165284920008C46002162445160CE
:104FD000E1540433E358E0301960E823E3581960E2
:104FE00000F0FEFBA7E6C023E25C002A00D19DE6AC
:104FF000DE220121A25C501C81401A4892004165CA
:10500000194920008C46002162445160E154043368
:10501000E358C0301960C823E358196000F0E0FB82
:1050200084E6A023E25C002A00D17AE6BE220121B8
:10503000A25C501C81400B48920041650A49200047
:105040008C46002162445160E1540433E358A0309F
:105050001960A823E358196000F0C2FB61E6C0465E
:105060001C13002000301150000011508023E25C1E
:10507000002A00D150E69E220121A25C501C8140F2
:10508000334892004165334920008C460021624438
:105090005160E1540433E358803019608823E358A9
:1050A000196000F09DFB37E66023E25C002A00D126
:1050B0002DE67E220121A25C501C814024489200F2
:1050C0004165244920008C46002162445160E1542E
:1050D000636E60301960A36E196000F081FB16E604
:1050E0004023E25C002A00D10CE65E220121A25C92
:1050F000501C8140164892004165164920008C469C
:10510000002162445160E154636C40301960A36C2B
:10511000196000F065FBF5E52023E25C002A00D170
:10512000EBE53E220121A25C501C81400848920020
:105130004165084920008C46002162445160E154D9
:10514000636A20301960A36A196000F049FBD4E556
:10515000003011500000115010B501210520FBF75F
:1051600065FA10BDF0B5DE4657464E464546E0B5F9
:10517000D37808009B07990F83B08C460191002BD0
:1051800068D02024784B1C5D002C00D1C4E0402462
:105190001C5D002C00D1C6E060241C5D002C00D1F9
:1051A000C3E080241C5D002C00D1C0E0A0241C5D65
:1051B000002C00D1BDE0C0241C5D002C00D1BAE061
:1051C000E0241C5D002C00D1B7E0802464001C5D4D
:1051D000002C00D1B3E0902464001C5D002C00D1B1
:1051E000AFE0A02464001C5D002C00D1ABE0B02433
:1051F00064001C5D002C00D1A7E0C02464001C5D8D
:10520000002C00D1A3E0D02464001C5D002C00D150
:105210009FE0E02464001C5D002C00D19BE0F024A2
:1052200064001D5D002D00D197E0FF256D005D5DE0
:105230004E49EE0077184E491C1988464D494644A0
:105240008846A760AD014C4F45446F40B846666044
:10525000E5600AE0C021444B484C49009C60484C42
:105260008846DC601C00474E5E6015799778A94639
:105270004946557992792D020D43F9098A466170A4
:1052800061466D056D0D25834546E1760199914690
:10529000890629437F22A0253A402D06A77029437D
:1052A000574257414D466077E770002D03D04D4679
:1052B000013D2D0429433160012121709C4223D0FE
:1052C000534616040643002B02D180239B041E4341
:1052D0002D4B1D6DAD05AD0F012D02D0022D3FD11F
:1052E000002501F051F9A84202D08023DB041E43BF
:1052F0002549A37F8C469A006244566001220133FF
:105300009A401300214A5365012003B0F0BCBB460C
:10531000B246A946A046F0BD0124651E6401EDB267
:105320001E19B57784E70224F7E70324F5E7042480
:10533000F3E70524F1E70624EFE70724EDE7082467
:10534000EBE70924E9E70A24E7E70B24E5E70C2467
:10535000E3E70D24E1E70E24DFE7D23CFF3CDCE786
:105360000B48FCF7EDFDC0461C13002088001050D0
:105370000800105000021050000010508000105023
:1053800080011050000110500000115000201150F9
:1053900058800010F0B54F46D6464646C0B59846F0
:1053A00008AB1B880D009A467F231F00D109894650
:1053B000C14C1740134200D19CE05F3BE35C002BE3
:1053C00004D03D23E35CAB4200D1FCE04023E35C2E
:1053D000002B04D05D23E35CAB4200D1FAE06023F4
:1053E000E35C002B04D07D23E35CAB4200D1F8E00A
:1053F0008023E35C002B04D09D23E35CAB4200D10F
:10540000FBE0A023E35C002B04D0BD23E35CAB42B4
:1054100000D1F9E0C023E35C002B04D0DD23E35C82
:10542000AB4200D1F7E0E023E35C002B04D0FD2386
:10543000E35CAB4200D1F5E080235B00E35C002B32
:1054400005D01E23FF33E35CAB4200D1F1E0902393
:105450005B00E35C002B05D03E23FF33E35CAB42F3
:1054600000D1EEE0A0235B00E35C002B05D05E23BF
:10547000FF33E35CAB4200D1EBE0B0235B00E35CC5
:10548000002B05D07E23FF33E35CAB4200D1E8E084
:10549000C0235B00E35C002B05D09E23FF33E35C5D
:1054A000AB4200D1E5E0D0235B00E35C002B05D0EC
:1054B000BE23FF33E35CAB4200D1E2E0E0235B00BC
:1054C000E35C002B05D0DE23FF33E35CAB4200D16D
:1054D000DFE0F0235B00E05C002806D0FE23FF3312
:1054E000E35C0020AB4200D1DBE0E0BCBA46B14651
:1054F000A846F0BDA3782600934242D04B46B27036
:1055000073707B427B41F268F3706C4BF17E5340C9
:10551000A022890612060B43134372687577136045
:1055200001233370A6422CD04B463F042F43002B5F
:1055300002D180239B041F43614B1C6DA405A40F63
:10554000012C03D0022C00D0B3E00024280001F08D
:105550001BF8A04202D08023DB041F435849B37FCD
:105560008C469A0062445760012201339A4013002E
:10557000544A536530005246414600F0CBF90120B1
:10558000B3E752462000414600F0C4F94A4696006F
:105590004D4A4B4B94463F042F431F601C6D66449D
:1055A000A405A40F012C03D0022C00D081E000241C
:1055B000280000F0E9FFA04201D040231E43404BE9
:1055C0000120DE6491E72223E35C934200D0FDE6F4
:1055D00001260CE04223E35C934200D0FFE6022662
:1055E00005E06223E35C934200D001E703267601E5
:1055F000A619B3789342BDD080E78223E35C93423F
:1056000000D0FEE60426F2E7A223E35C934200D03A
:1056100000E70526EBE7C223E35C934200D002E7F4
:105620000626E4E7E223E35C934200D004E7072682
:10563000DDE781235B00E35C934200D007E70826A7
:10564000D5E791235B00E35C934200D00AE709268B
:10565000CDE7A1235B00E35C934200D00DE70A266F
:10566000C5E7B1235B00E35C934200D010E70B2653
:10567000BDE7C1235B00E35C934200D013E70C2637
:10568000B5E7D1235B00E35C934200D016E70D261B
:10569000ADE7E1235B00E35C934200D019E70E26FF
:1056A000A5E7F1235B00E35C934200D01DE70F26E2
:1056B0009DE70648FCF744FC1C1300200000105036
:1056C0000000115000201150058600205880001065
:1056D00010B5204B080011788024197051786400AF
:1056E000597091789970D178D9701179197151796F
:1056F000597191799971D2791749DA71174B184A12
:10570000D96000219A605970164AD97616495C8092
:105710005A6058771160012208211A7099829A768E
:10572000124B18601B6D9B059C0F012C02D0022CA4
:105730000DD1002400F028FF031B5A1E93410C4A90
:105740009B019446094A63440120D36410BD094873
:10575000FCF7F6FB00001050800110501C130020D5
:105760008000105000011050800100A00000115076
:1057700003860020588000107F21C309034A9B0044
:10578000014010B59A580248FCF7DAFB48030020A4
:105790006880001080220D4B520410B51A600C4B2B
:1057A0000C491A6010008B689843FBD10A4C9C226C
:1057B00000212000FEF7AEFD8022002152010748A3
:1057C000FEF7A8FD0923636710BDC04600E0004056
:1057D00000F0004000C000400000115000001050D8
:1057E00000238376436103617047C046F0B5C64627
:1057F00000B54368028B1F68838A0400161C9A4216
:1058000000D91E1C8025B6B29B1BE2789BB2ED002E
:10581000A3823543002A02D09025AD0135430121F2
:105820004A40E2706278002A4CD0002B02D18022DC
:10583000D2011543802252011543324A126C92075D
:1058400014D5A278520614D02F4B3B408027BF05B9
:105850001F4363681F60A3681A6852054ED42B4A21
:105860002A401A601D6080BCB846F0BDA278D209FB
:10587000EAD0002BE8D0228B111C9A4200D9191CC7
:1058800080268AB2F6009B1A90461643E2789BB2B5
:10589000A382002A03D090264146B6010E4301217F
:1058A0004A40E2706278002A1AD0002B02D180238D
:1058B000DB011E43164B36043B40A027FF05354352
:1058C0001F43C6E732002169E068FEF729FD23691E
:1058D0009C46802366441B021D432661A38AA4E7DD
:1058E000E068424621694030FEF71AFD23694344CF
:1058F000236180231B021E43A38AD6E7A078FFF70B
:105900003BFFC04600001150FFFFFFAFFFFBFFFF52
:10591000FFFFFFDFF0B5C646002300B5C3820133A9
:105920008376436804001F68038B01611E1C934249
:1059300000D9161C8025B6B2921B93B2E278ED0016
:10594000A3823543002A02D09025AD0135430120C2
:105950004240E2706278002A4CD0002B02D18022B3
:10596000D2011543802252011543314A126C92072D
:1059700014D5A278520614D02E4B3B408027BF0589
:105980001F4363681F60A3681A6852054DD42A4AF2
:105990002A401A601D6080BCB846F0BDA278D209CA
:1059A000EAD0002BE8D0228B111C9A4200D9191C96
:1059B00080268AB2F6009B1A90461643E2789BB284
:1059C000A382002A03D090264146B6010E4301214E
:1059D0004A40E2706278002A19D0002B02D180235D
:1059E000DB011E43154B36043B40A027FF05354322
:1059F0001F43C6E73200E068FEF792FC23699C462D
:105A0000802366441B021D432661A38AA5E7E06844
:105A1000424621694030FEF783FC236943442361F9
:105A200080231B021E43A38AD7E7A078FFF7A4FEBA
:105A300000001150FFFFFFAFFFFBFFFFFFFFFFDF85
:105A400070B5867E0400002E4BD083681A681D68EE
:105A50004378AD05AD0D002B1AD1C38AEB189BB26C
:105A6000C382218B8D4205D20023A38263681B6809
:105A7000300070BD62681268520001D58D4214D0AA
:105A8000A38A002BF4D02000FFF7B0FE0026EFE73A
:105A90002A00C1680069FEF743FCE38A2269EB181B
:105AA0009BB25219E3822261DBE7A2681568627833
:105AB000AD01AD0D002A06D15B19E382A942DFD901
:105AC0000023A382D4E7E1682A0040312069FEF771
:105AD00027FCE38A218BEB18E38223695B1923619E
